{
   "_format": "hh-sol-artifact-1",
   "contractName": "MidnightOtter",
   "sourceName": "contracts/MidnightOtter.sol",
   "abi": [
      {
         "inputs": [
            {
               "internalType": "address",
               "name": "defaultAdmin",
               "type": "address"
            },
            {
               "internalType": "address",
               "name": "minter",
               "type": "address"
            }
         ],
         "stateMutability": "nonpayable",
         "type": "constructor"
      },
      {
         "inputs": [],
         "name": "AccessControlBadConfirmation",
         "type": "error"
      },
      {
         "inputs": [
            {
               "internalType": "address",
               "name": "account",
               "type": "address"
            },
            {
               "internalType": "bytes32",
               "name": "neededRole",
               "type": "bytes32"
            }
         ],
         "name": "AccessControlUnauthorizedAccount",
         "type": "error"
      },
      {
         "inputs": [],
         "name": "ERC721EnumerableForbiddenBatchMint",
         "type": "error"
      },
      {
         "inputs": [
            {
               "internalType": "address",
               "name": "sender",
               "type": "address"
            },
            {
               "internalType": "uint256",
               "name": "tokenId",
               "type": "uint256"
            },
            {
               "internalType": "address",
               "name": "owner",
               "type": "address"
            }
         ],
         "name": "ERC721IncorrectOwner",
         "type": "error"
      },
      {
         "inputs": [
            {
               "internalType": "address",
               "name": "operator",
               "type": "address"
            },
            {
               "internalType": "uint256",
               "name": "tokenId",
               "type": "uint256"
            }
         ],
         "name": "ERC721InsufficientApproval",
         "type": "error"
      },
      {
         "inputs": [
            {
               "internalType": "address",
               "name": "approver",
               "type": "address"
            }
         ],
         "name": "ERC721InvalidApprover",
         "type": "error"
      },
      {
         "inputs": [
            {
               "internalType": "address",
               "name": "operator",
               "type": "address"
            }
         ],
         "name": "ERC721InvalidOperator",
         "type": "error"
      },
      {
         "inputs": [
            {
               "internalType": "address",
               "name": "owner",
               "type": "address"
            }
         ],
         "name": "ERC721InvalidOwner",
         "type": "error"
      },
      {
         "inputs": [
            {
               "internalType": "address",
               "name": "receiver",
               "type": "address"
            }
         ],
         "name": "ERC721InvalidReceiver",
         "type": "error"
      },
      {
         "inputs": [
            {
               "internalType": "address",
               "name": "sender",
               "type": "address"
            }
         ],
         "name": "ERC721InvalidSender",
         "type": "error"
      },
      {
         "inputs": [
            {
               "internalType": "uint256",
               "name": "tokenId",
               "type": "uint256"
            }
         ],
         "name": "ERC721NonexistentToken",
         "type": "error"
      },
      {
         "inputs": [
            {
               "internalType": "address",
               "name": "owner",
               "type": "address"
            },
            {
               "internalType": "uint256",
               "name": "index",
               "type": "uint256"
            }
         ],
         "name": "ERC721OutOfBoundsIndex",
         "type": "error"
      },
      {
         "anonymous": false,
         "inputs": [
            {
               "indexed": true,
               "internalType": "address",
               "name": "owner",
               "type": "address"
            },
            {
               "indexed": true,
               "internalType": "address",
               "name": "approved",
               "type": "address"
            },
            {
               "indexed": true,
               "internalType": "uint256",
               "name": "tokenId",
               "type": "uint256"
            }
         ],
         "name": "Approval",
         "type": "event"
      },
      {
         "anonymous": false,
         "inputs": [
            {
               "indexed": true,
               "internalType": "address",
               "name": "owner",
               "type": "address"
            },
            {
               "indexed": true,
               "internalType": "address",
               "name": "operator",
               "type": "address"
            },
            {
               "indexed": false,
               "internalType": "bool",
               "name": "approved",
               "type": "bool"
            }
         ],
         "name": "ApprovalForAll",
         "type": "event"
      },
      {
         "anonymous": false,
         "inputs": [
            {
               "indexed": true,
               "internalType": "bytes32",
               "name": "role",
               "type": "bytes32"
            },
            {
               "indexed": true,
               "internalType": "bytes32",
               "name": "previousAdminRole",
               "type": "bytes32"
            },
            {
               "indexed": true,
               "internalType": "bytes32",
               "name": "newAdminRole",
               "type": "bytes32"
            }
         ],
         "name": "RoleAdminChanged",
         "type": "event"
      },
      {
         "anonymous": false,
         "inputs": [
            {
               "indexed": true,
               "internalType": "bytes32",
               "name": "role",
               "type": "bytes32"
            },
            {
               "indexed": true,
               "internalType": "address",
               "name": "account",
               "type": "address"
            },
            {
               "indexed": true,
               "internalType": "address",
               "name": "sender",
               "type": "address"
            }
         ],
         "name": "RoleGranted",
         "type": "event"
      },
      {
         "anonymous": false,
         "inputs": [
            {
               "indexed": true,
               "internalType": "bytes32",
               "name": "role",
               "type": "bytes32"
            },
            {
               "indexed": true,
               "internalType": "address",
               "name": "account",
               "type": "address"
            },
            {
               "indexed": true,
               "internalType": "address",
               "name": "sender",
               "type": "address"
            }
         ],
         "name": "RoleRevoked",
         "type": "event"
      },
      {
         "anonymous": false,
         "inputs": [
            {
               "indexed": true,
               "internalType": "address",
               "name": "from",
               "type": "address"
            },
            {
               "indexed": true,
               "internalType": "address",
               "name": "to",
               "type": "address"
            },
            {
               "indexed": true,
               "internalType": "uint256",
               "name": "tokenId",
               "type": "uint256"
            }
         ],
         "name": "Transfer",
         "type": "event"
      },
      {
         "inputs": [],
         "name": "DEFAULT_ADMIN_ROLE",
         "outputs": [
            {
               "internalType": "bytes32",
               "name": "",
               "type": "bytes32"
            }
         ],
         "stateMutability": "view",
         "type": "function"
      },
      {
         "inputs": [],
         "name": "MINTER_ROLE",
         "outputs": [
            {
               "internalType": "bytes32",
               "name": "",
               "type": "bytes32"
            }
         ],
         "stateMutability": "view",
         "type": "function"
      },
      {
         "inputs": [
            {
               "internalType": "uint256",
               "name": "tokenId",
               "type": "uint256"
            },
            {
               "internalType": "string",
               "name": "expertReport",
               "type": "string"
            }
         ],
         "name": "addExpertReport",
         "outputs": [],
         "stateMutability": "nonpayable",
         "type": "function"
      },
      {
         "inputs": [
            {
               "internalType": "address",
               "name": "to",
               "type": "address"
            },
            {
               "internalType": "uint256",
               "name": "tokenId",
               "type": "uint256"
            }
         ],
         "name": "approve",
         "outputs": [],
         "stateMutability": "nonpayable",
         "type": "function"
      },
      {
         "inputs": [
            {
               "internalType": "address",
               "name": "owner",
               "type": "address"
            }
         ],
         "name": "balanceOf",
         "outputs": [
            {
               "internalType": "uint256",
               "name": "",
               "type": "uint256"
            }
         ],
         "stateMutability": "view",
         "type": "function"
      },
      {
         "inputs": [
            {
               "internalType": "uint256",
               "name": "",
               "type": "uint256"
            }
         ],
         "name": "caseProperties",
         "outputs": [
            {
               "internalType": "uint256",
               "name": "numberCase",
               "type": "uint256"
            },
            {
               "internalType": "string",
               "name": "nameCase",
               "type": "string"
            },
            {
               "internalType": "string",
               "name": "nameObject",
               "type": "string"
            },
            {
               "internalType": "string",
               "name": "descriptionObject",
               "type": "string"
            }
         ],
         "stateMutability": "view",
         "type": "function"
      },
      {
         "inputs": [],
         "name": "getActualTokenId",
         "outputs": [
            {
               "internalType": "uint256",
               "name": "",
               "type": "uint256"
            }
         ],
         "stateMutability": "view",
         "type": "function"
      },
      {
         "inputs": [
            {
               "internalType": "uint256",
               "name": "tokenId",
               "type": "uint256"
            }
         ],
         "name": "getApproved",
         "outputs": [
            {
               "internalType": "address",
               "name": "",
               "type": "address"
            }
         ],
         "stateMutability": "view",
         "type": "function"
      },
      {
         "inputs": [
            {
               "internalType": "uint256",
               "name": "tokenId",
               "type": "uint256"
            }
         ],
         "name": "getCaseProperties",
         "outputs": [
            {
               "components": [
                  {
                     "internalType": "uint256",
                     "name": "numberCase",
                     "type": "uint256"
                  },
                  {
                     "internalType": "string",
                     "name": "nameCase",
                     "type": "string"
                  },
                  {
                     "internalType": "string",
                     "name": "nameObject",
                     "type": "string"
                  },
                  {
                     "internalType": "string",
                     "name": "descriptionObject",
                     "type": "string"
                  },
                  {
                     "internalType": "string[]",
                     "name": "expertReports",
                     "type": "string[]"
                  }
               ],
               "internalType": "struct MidnightOtter.Property",
               "name": "",
               "type": "tuple"
            }
         ],
         "stateMutability": "view",
         "type": "function"
      },
      {
         "inputs": [
            {
               "internalType": "address",
               "name": "owner",
               "type": "address"
            }
         ],
         "name": "getOwnerCases",
         "outputs": [
            {
               "internalType": "uint256[]",
               "name": "",
               "type": "uint256[]"
            }
         ],
         "stateMutability": "view",
         "type": "function"
      },
      {
         "inputs": [
            {
               "internalType": "bytes32",
               "name": "role",
               "type": "bytes32"
            }
         ],
         "name": "getRoleAdmin",
         "outputs": [
            {
               "internalType": "bytes32",
               "name": "",
               "type": "bytes32"
            }
         ],
         "stateMutability": "view",
         "type": "function"
      },
      {
         "inputs": [
            {
               "internalType": "bytes32",
               "name": "role",
               "type": "bytes32"
            },
            {
               "internalType": "address",
               "name": "account",
               "type": "address"
            }
         ],
         "name": "grantRole",
         "outputs": [],
         "stateMutability": "nonpayable",
         "type": "function"
      },
      {
         "inputs": [
            {
               "internalType": "bytes32",
               "name": "role",
               "type": "bytes32"
            },
            {
               "internalType": "address",
               "name": "account",
               "type": "address"
            }
         ],
         "name": "hasRole",
         "outputs": [
            {
               "internalType": "bool",
               "name": "",
               "type": "bool"
            }
         ],
         "stateMutability": "view",
         "type": "function"
      },
      {
         "inputs": [
            {
               "internalType": "address",
               "name": "owner",
               "type": "address"
            },
            {
               "internalType": "address",
               "name": "operator",
               "type": "address"
            }
         ],
         "name": "isApprovedForAll",
         "outputs": [
            {
               "internalType": "bool",
               "name": "",
               "type": "bool"
            }
         ],
         "stateMutability": "view",
         "type": "function"
      },
      {
         "inputs": [],
         "name": "name",
         "outputs": [
            {
               "internalType": "string",
               "name": "",
               "type": "string"
            }
         ],
         "stateMutability": "view",
         "type": "function"
      },
      {
         "inputs": [
            {
               "internalType": "uint256",
               "name": "tokenId",
               "type": "uint256"
            }
         ],
         "name": "ownerOf",
         "outputs": [
            {
               "internalType": "address",
               "name": "",
               "type": "address"
            }
         ],
         "stateMutability": "view",
         "type": "function"
      },
      {
         "inputs": [
            {
               "internalType": "bytes32",
               "name": "role",
               "type": "bytes32"
            },
            {
               "internalType": "address",
               "name": "callerConfirmation",
               "type": "address"
            }
         ],
         "name": "renounceRole",
         "outputs": [],
         "stateMutability": "nonpayable",
         "type": "function"
      },
      {
         "inputs": [
            {
               "internalType": "bytes32",
               "name": "role",
               "type": "bytes32"
            },
            {
               "internalType": "address",
               "name": "account",
               "type": "address"
            }
         ],
         "name": "revokeRole",
         "outputs": [],
         "stateMutability": "nonpayable",
         "type": "function"
      },
      {
         "inputs": [
            {
               "internalType": "address",
               "name": "to",
               "type": "address"
            },
            {
               "components": [
                  {
                     "internalType": "uint256",
                     "name": "numberCase",
                     "type": "uint256"
                  },
                  {
                     "internalType": "string",
                     "name": "nameCase",
                     "type": "string"
                  },
                  {
                     "internalType": "string",
                     "name": "nameObject",
                     "type": "string"
                  },
                  {
                     "internalType": "string",
                     "name": "descriptionObject",
                     "type": "string"
                  },
                  {
                     "internalType": "string[]",
                     "name": "expertReports",
                     "type": "string[]"
                  }
               ],
               "internalType": "struct MidnightOtter.Property",
               "name": "initialTokenStruct",
               "type": "tuple"
            }
         ],
         "name": "safeMint",
         "outputs": [],
         "stateMutability": "nonpayable",
         "type": "function"
      },
      {
         "inputs": [
            {
               "internalType": "address",
               "name": "from",
               "type": "address"
            },
            {
               "internalType": "address",
               "name": "to",
               "type": "address"
            },
            {
               "internalType": "uint256",
               "name": "tokenId",
               "type": "uint256"
            }
         ],
         "name": "safeTransferFrom",
         "outputs": [],
         "stateMutability": "nonpayable",
         "type": "function"
      },
      {
         "inputs": [
            {
               "internalType": "address",
               "name": "from",
               "type": "address"
            },
            {
               "internalType": "address",
               "name": "to",
               "type": "address"
            },
            {
               "internalType": "uint256",
               "name": "tokenId",
               "type": "uint256"
            },
            {
               "internalType": "bytes",
               "name": "data",
               "type": "bytes"
            }
         ],
         "name": "safeTransferFrom",
         "outputs": [],
         "stateMutability": "nonpayable",
         "type": "function"
      },
      {
         "inputs": [
            {
               "internalType": "address",
               "name": "operator",
               "type": "address"
            },
            {
               "internalType": "bool",
               "name": "approved",
               "type": "bool"
            }
         ],
         "name": "setApprovalForAll",
         "outputs": [],
         "stateMutability": "nonpayable",
         "type": "function"
      },
      {
         "inputs": [
            {
               "internalType": "bytes4",
               "name": "interfaceId",
               "type": "bytes4"
            }
         ],
         "name": "supportsInterface",
         "outputs": [
            {
               "internalType": "bool",
               "name": "",
               "type": "bool"
            }
         ],
         "stateMutability": "view",
         "type": "function"
      },
      {
         "inputs": [],
         "name": "symbol",
         "outputs": [
            {
               "internalType": "string",
               "name": "",
               "type": "string"
            }
         ],
         "stateMutability": "view",
         "type": "function"
      },
      {
         "inputs": [
            {
               "internalType": "uint256",
               "name": "index",
               "type": "uint256"
            }
         ],
         "name": "tokenByIndex",
         "outputs": [
            {
               "internalType": "uint256",
               "name": "",
               "type": "uint256"
            }
         ],
         "stateMutability": "view",
         "type": "function"
      },
      {
         "inputs": [
            {
               "internalType": "address",
               "name": "owner",
               "type": "address"
            },
            {
               "internalType": "uint256",
               "name": "index",
               "type": "uint256"
            }
         ],
         "name": "tokenOfOwnerByIndex",
         "outputs": [
            {
               "internalType": "uint256",
               "name": "",
               "type": "uint256"
            }
         ],
         "stateMutability": "view",
         "type": "function"
      },
      {
         "inputs": [
            {
               "internalType": "uint256",
               "name": "tokenId",
               "type": "uint256"
            }
         ],
         "name": "tokenURI",
         "outputs": [
            {
               "internalType": "string",
               "name": "",
               "type": "string"
            }
         ],
         "stateMutability": "view",
         "type": "function"
      },
      {
         "inputs": [],
         "name": "totalSupply",
         "outputs": [
            {
               "internalType": "uint256",
               "name": "",
               "type": "uint256"
            }
         ],
         "stateMutability": "view",
         "type": "function"
      },
      {
         "inputs": [
            {
               "internalType": "address",
               "name": "from",
               "type": "address"
            },
            {
               "internalType": "address",
               "name": "to",
               "type": "address"
            },
            {
               "internalType": "uint256",
               "name": "tokenId",
               "type": "uint256"
            }
         ],
         "name": "transferFrom",
         "outputs": [],
         "stateMutability": "nonpayable",
         "type": "function"
      },
      {
         "inputs": [
            {
               "internalType": "address",
               "name": "to",
               "type": "address"
            },
            {
               "components": [
                  {
                     "internalType": "uint256",
                     "name": "numberCase",
                     "type": "uint256"
                  },
                  {
                     "internalType": "string",
                     "name": "nameCase",
                     "type": "string"
                  },
                  {
                     "internalType": "string",
                     "name": "nameObject",
                     "type": "string"
                  },
                  {
                     "internalType": "string",
                     "name": "descriptionObject",
                     "type": "string"
                  },
                  {
                     "internalType": "string[]",
                     "name": "expertReports",
                     "type": "string[]"
                  }
               ],
               "internalType": "struct MidnightOtter.Property",
               "name": "initialTokenStruct",
               "type": "tuple"
            }
         ],
         "name": "unsafeMint",
         "outputs": [],
         "stateMutability": "nonpayable",
         "type": "function"
      }
   ],
   "bytecode": "0x60806040523480156200001157600080fd5b5060405162004633380380620046338339818101604052810190620000379190620002fb565b6040518060400160405280600d81526020017f4d69646e696768744f74746572000000000000000000000000000000000000008152506040518060400160405280600381526020017f4d4f4b00000000000000000000000000000000000000000000000000000000008152508160009081620000b49190620005bc565b508060019081620000c69190620005bc565b505050620000de6000801b836200011a60201b60201c565b50620001117f9f2df0fed2c77648de5860a4cc508cd0818c85b8b8a1ab4ceeef8d981c8956a6826200011a60201b60201c565b505050620006a3565b60006200012e83836200021e60201b60201c565b62000213576001600a600085815260200190815260200160002060000160008473ffffffffffffffffffffffffffffffffffffffff1673ffffffffffffffffffffffffffffffffffffffff16815260200190815260200160002060006101000a81548160ff021916908315150217905550620001af6200028960201b60201c565b73ffffffffffffffffffffffffffffffffffffffff168273ffffffffffffffffffffffffffffffffffffffff16847f2f8788117e7eff1d82e926ec794901d17c78024a50270940304540a733656f0d60405160405180910390a46001905062000218565b600090505b92915050565b6000600a600084815260200190815260200160002060000160008373ffffffffffffffffffffffffffffffffffffffff1673ffffffffffffffffffffffffffffffffffffffff16815260200190815260200160002060009054906101000a900460ff16905092915050565b600033905090565b600080fd5b600073ffffffffffffffffffffffffffffffffffffffff82169050919050565b6000620002c38262000296565b9050919050565b620002d581620002b6565b8114620002e157600080fd5b50565b600081519050620002f581620002ca565b92915050565b6000806040838503121562000315576200031462000291565b5b60006200032585828601620002e4565b92505060206200033885828601620002e4565b9150509250929050565b600081519050919050565b7f4e487b7100000000000000000000000000000000000000000000000000000000600052604160045260246000fd5b7f4e487b7100000000000000000000000000000000000000000000000000000000600052602260045260246000fd5b60006002820490506001821680620003c457607f821691505b602082108103620003da57620003d96200037c565b5b50919050565b60008190508160005260206000209050919050565b60006020601f8301049050919050565b600082821b905092915050565b600060088302620004447fffffffffffffffffffffffffffffffffffffffffffffffffffffffffffffffff8262000405565b62000450868362000405565b95508019841693508086168417925050509392505050565b6000819050919050565b6000819050919050565b60006200049d62000497620004918462000468565b62000472565b62000468565b9050919050565b6000819050919050565b620004b9836200047c565b620004d1620004c882620004a4565b84845462000412565b825550505050565b600090565b620004e8620004d9565b620004f5818484620004ae565b505050565b5b818110156200051d5762000511600082620004de565b600181019050620004fb565b5050565b601f8211156200056c576200053681620003e0565b6200054184620003f5565b8101602085101562000551578190505b620005696200056085620003f5565b830182620004fa565b50505b505050565b600082821c905092915050565b6000620005916000198460080262000571565b1980831691505092915050565b6000620005ac83836200057e565b9150826002028217905092915050565b620005c78262000342565b67ffffffffffffffff811115620005e357620005e26200034d565b5b620005ef8254620003ab565b620005fc82828562000521565b600060209050601f8311600181146200063457600084156200061f578287015190505b6200062b85826200059e565b8655506200069b565b601f1984166200064486620003e0565b60005b828110156200066e5784890151825560018201915060208501945060208101905062000647565b868310156200068e57848901516200068a601f8916826200057e565b8355505b6001600288020188555050505b505050505050565b613f8080620006b36000396000f3fe608060405234801561001057600080fd5b50600436106101da5760003560e01c8063906229d111610104578063b58e1a17116100a2578063d547741f11610071578063d547741f146105a0578063e1a5dc60146105bc578063e985e9c5146105da578063fc46a24a1461060a576101da565b8063b58e1a171461051a578063b88d4fde14610536578063c87b56dd14610552578063d539139314610582576101da565b806395fee489116100de57806395fee48914610491578063a217fddf146104ad578063a22cb465146104cb578063b1f29057146104e7576101da565b8063906229d11461042757806391d148541461044357806395d89b4114610473576101da565b80632f2ff15d1161017c5780634f6ccce71161014b5780634f6ccce7146103675780636352211e1461039757806370a08231146103c75780637b60df73146103f7576101da565b80632f2ff15d146102e35780632f745c59146102ff57806336568abe1461032f57806342842e0e1461034b576101da565b8063095ea7b3116101b8578063095ea7b31461025d57806318160ddd1461027957806323b872dd14610297578063248a9ca3146102b3576101da565b806301ffc9a7146101df57806306fdde031461020f578063081812fc1461022d575b600080fd5b6101f960048036038101906101f49190612c5d565b61063a565b6040516102069190612ca5565b60405180910390f35b61021761064c565b6040516102249190612d50565b60405180910390f35b61024760048036038101906102429190612da8565b6106de565b6040516102549190612e16565b60405180910390f35b61027760048036038101906102729190612e5d565b6106fa565b005b610281610710565b60405161028e9190612eac565b60405180910390f35b6102b160048036038101906102ac9190612ec7565b61071d565b005b6102cd60048036038101906102c89190612f50565b61081f565b6040516102da9190612f8c565b60405180910390f35b6102fd60048036038101906102f89190612fa7565b61083f565b005b61031960048036038101906103149190612e5d565b610861565b6040516103269190612eac565b60405180910390f35b61034960048036038101906103449190612fa7565b61090a565b005b61036560048036038101906103609190612ec7565b610985565b005b610381600480360381019061037c9190612da8565b6109a5565b60405161038e9190612eac565b60405180910390f35b6103b160048036038101906103ac9190612da8565b610a1b565b6040516103be9190612e16565b60405180910390f35b6103e160048036038101906103dc9190612fe7565b610a2d565b6040516103ee9190612eac565b60405180910390f35b610411600480360381019061040c9190612da8565b610ae7565b60405161041e91906131ba565b60405180910390f35b610441600480360381019061043c91906134fd565b610dad565b005b61045d60048036038101906104589190612fa7565b610e57565b60405161046a9190612ca5565b60405180910390f35b61047b610ec2565b6040516104889190612d50565b60405180910390f35b6104ab60048036038101906104a691906134fd565b610f54565b005b6104b5611029565b6040516104c29190612f8c565b60405180910390f35b6104e560048036038101906104e09190613585565b611030565b005b61050160048036038101906104fc9190612da8565b611046565b60405161051194939291906135c5565b60405180910390f35b610534600480360381019061052f919061361f565b61120e565b005b610550600480360381019061054b919061371c565b6112fc565b005b61056c60048036038101906105679190612da8565b611319565b6040516105799190612d50565b60405180910390f35b61058a611382565b6040516105979190612f8c565b60405180910390f35b6105ba60048036038101906105b59190612fa7565b6113a6565b005b6105c46113c8565b6040516105d19190612eac565b60405180910390f35b6105f460048036038101906105ef919061379f565b6113d2565b6040516106019190612ca5565b60405180910390f35b610624600480360381019061061f9190612fe7565b611466565b604051610631919061388e565b60405180910390f35b600061064582611514565b9050919050565b60606000805461065b906138df565b80601f0160208091040260200160405190810160405280929190818152602001828054610687906138df565b80156106d45780601f106106a9576101008083540402835291602001916106d4565b820191906000526020600020905b8154815290600101906020018083116106b757829003601f168201915b5050505050905090565b60006106e98261158e565b506106f382611616565b9050919050565b61070c8282610707611653565b61165b565b5050565b6000600880549050905090565b600073ffffffffffffffffffffffffffffffffffffffff168273ffffffffffffffffffffffffffffffffffffffff160361078f5760006040517f64a0ae920000000000000000000000000000000000000000000000000000000081526004016107869190612e16565b60405180910390fd5b60006107a3838361079e611653565b61166d565b90508373ffffffffffffffffffffffffffffffffffffffff168173ffffffffffffffffffffffffffffffffffffffff1614610819578382826040517f64283d7b00000000000000000000000000000000000000000000000000000000815260040161081093929190613910565b60405180910390fd5b50505050565b6000600a6000838152602001908152602001600020600101549050919050565b6108488261081f565b61085181611683565b61085b8383611697565b50505050565b600061086c83610a2d565b82106108b15782826040517fa57d13dc0000000000000000000000000000000000000000000000000000000081526004016108a8929190613947565b60405180910390fd5b600660008473ffffffffffffffffffffffffffffffffffffffff1673ffffffffffffffffffffffffffffffffffffffff168152602001908152602001600020600083815260200190815260200160002054905092915050565b610912611653565b73ffffffffffffffffffffffffffffffffffffffff168173ffffffffffffffffffffffffffffffffffffffff1614610976576040517f6697b23200000000000000000000000000000000000000000000000000000000815260040160405180910390fd5b6109808282611789565b505050565b6109a0838383604051806020016040528060008152506112fc565b505050565b60006109af610710565b82106109f5576000826040517fa57d13dc0000000000000000000000000000000000000000000000000000000081526004016109ec929190613947565b60405180910390fd5b60088281548110610a0957610a08613970565b5b90600052602060002001549050919050565b6000610a268261158e565b9050919050565b60008073ffffffffffffffffffffffffffffffffffffffff168273ffffffffffffffffffffffffffffffffffffffff1603610aa05760006040517f89c62b64000000000000000000000000000000000000000000000000000000008152600401610a979190612e16565b60405180910390fd5b600360008373ffffffffffffffffffffffffffffffffffffffff1673ffffffffffffffffffffffffffffffffffffffff168152602001908152602001600020549050919050565b610aef612ae8565b600c60008381526020019081526020016000206040518060a001604052908160008201548152602001600182018054610b27906138df565b80601f0160208091040260200160405190810160405280929190818152602001828054610b53906138df565b8015610ba05780601f10610b7557610100808354040283529160200191610ba0565b820191906000526020600020905b815481529060010190602001808311610b8357829003601f168201915b50505050508152602001600282018054610bb9906138df565b80601f0160208091040260200160405190810160405280929190818152602001828054610be5906138df565b8015610c325780601f10610c0757610100808354040283529160200191610c32565b820191906000526020600020905b815481529060010190602001808311610c1557829003601f168201915b50505050508152602001600382018054610c4b906138df565b80601f0160208091040260200160405190810160405280929190818152602001828054610c77906138df565b8015610cc45780601f10610c9957610100808354040283529160200191610cc4565b820191906000526020600020905b815481529060010190602001808311610ca757829003601f168201915b5050505050815260200160048201805480602002602001604051908101604052809291908181526020016000905b82821015610d9e578382906000526020600020018054610d11906138df565b80601f0160208091040260200160405190810160405280929190818152602001828054610d3d906138df565b8015610d8a5780601f10610d5f57610100808354040283529160200191610d8a565b820191906000526020600020905b815481529060010190602001808311610d6d57829003601f168201915b505050505081526020019060010190610cf2565b50505050815250509050919050565b6000600b6000815480929190610dc2906139ce565b919050559050610dd2838261187c565b81600c6000838152602001908152602001600020600082015181600001556020820151816001019081610e059190613bc2565b506040820151816002019081610e1b9190613bc2565b506060820151816003019081610e319190613bc2565b506080820151816004019080519060200190610e4e929190612b17565b50905050505050565b6000600a600084815260200190815260200160002060000160008373ffffffffffffffffffffffffffffffffffffffff1673ffffffffffffffffffffffffffffffffffffffff16815260200190815260200160002060009054906101000a900460ff16905092915050565b606060018054610ed1906138df565b80601f0160208091040260200160405190810160405280929190818152602001828054610efd906138df565b8015610f4a5780601f10610f1f57610100808354040283529160200191610f4a565b820191906000526020600020905b815481529060010190602001808311610f2d57829003601f168201915b5050505050905090565b7f9f2df0fed2c77648de5860a4cc508cd0818c85b8b8a1ab4ceeef8d981c8956a6610f7e81611683565b6000600b6000815480929190610f93906139ce565b919050559050610fa38482611975565b82600c6000838152602001908152602001600020600082015181600001556020820151816001019081610fd69190613bc2565b506040820151816002019081610fec9190613bc2565b5060608201518160030190816110029190613bc2565b50608082015181600401908051906020019061101f929190612b17565b5090505050505050565b6000801b81565b61104261103b611653565b8383611993565b5050565b600c60205280600052604060002060009150905080600001549080600101805461106f906138df565b80601f016020809104026020016040519081016040528092919081815260200182805461109b906138df565b80156110e85780601f106110bd576101008083540402835291602001916110e8565b820191906000526020600020905b8154815290600101906020018083116110cb57829003601f168201915b5050505050908060020180546110fd906138df565b80601f0160208091040260200160405190810160405280929190818152602001828054611129906138df565b80156111765780601f1061114b57610100808354040283529160200191611176565b820191906000526020600020905b81548152906001019060200180831161115957829003601f168201915b50505050509080600301805461118b906138df565b80601f01602080910402602001604051908101604052809291908181526020018280546111b7906138df565b80156112045780601f106111d957610100808354040283529160200191611204565b820191906000526020600020905b8154815290600101906020018083116111e757829003601f168201915b5050505050905084565b7f9f2df0fed2c77648de5860a4cc508cd0818c85b8b8a1ab4ceeef8d981c8956a661123881611683565b3373ffffffffffffffffffffffffffffffffffffffff1661125884610a1b565b73ffffffffffffffffffffffffffffffffffffffff16146112ae576040517f08c379a00000000000000000000000000000000000000000000000000000000081526004016112a590613d2c565b60405180910390fd5b600c6000848152602001908152602001600020600401829080600181540180825580915050600190039060005260206000200160009091909190915090816112f69190613bc2565b50505050565b61130784848461071d565b61131384848484611b02565b50505050565b60606113248261158e565b50600061132f611cb9565b9050600081511161134f576040518060200160405280600081525061137a565b8061135984611cd0565b60405160200161136a929190613d88565b6040516020818303038152906040525b915050919050565b7f9f2df0fed2c77648de5860a4cc508cd0818c85b8b8a1ab4ceeef8d981c8956a681565b6113af8261081f565b6113b881611683565b6113c28383611789565b50505050565b6000600b54905090565b6000600560008473ffffffffffffffffffffffffffffffffffffffff1673ffffffffffffffffffffffffffffffffffffffff16815260200190815260200160002060008373ffffffffffffffffffffffffffffffffffffffff1673ffffffffffffffffffffffffffffffffffffffff16815260200190815260200160002060009054906101000a900460ff16905092915050565b6060600061147383610a2d565b905060008167ffffffffffffffff811115611491576114906131e1565b5b6040519080825280602002602001820160405280156114bf5781602001602082028036833780820191505090505b50905060005b82811015611509576114d78582610861565b8282815181106114ea576114e9613970565b5b6020026020010181815250508080611501906139ce565b9150506114c5565b508092505050919050565b60007f7965db0b000000000000000000000000000000000000000000000000000000007bffffffffffffffffffffffffffffffffffffffffffffffffffffffff1916827bffffffffffffffffffffffffffffffffffffffffffffffffffffffff19161480611587575061158682611d9e565b5b9050919050565b60008061159a83611e18565b9050600073ffffffffffffffffffffffffffffffffffffffff168173ffffffffffffffffffffffffffffffffffffffff160361160d57826040517f7e2732890000000000000000000000000000000000000000000000000000000081526004016116049190612eac565b60405180910390fd5b80915050919050565b60006004600083815260200190815260200160002060009054906101000a900473ffffffffffffffffffffffffffffffffffffffff169050919050565b600033905090565b6116688383836001611e55565b505050565b600061167a84848461201a565b90509392505050565b6116948161168f611653565b612137565b50565b60006116a38383610e57565b61177e576001600a600085815260200190815260200160002060000160008473ffffffffffffffffffffffffffffffffffffffff1673ffffffffffffffffffffffffffffffffffffffff16815260200190815260200160002060006101000a81548160ff02191690831515021790555061171b611653565b73ffffffffffffffffffffffffffffffffffffffff168273ffffffffffffffffffffffffffffffffffffffff16847f2f8788117e7eff1d82e926ec794901d17c78024a50270940304540a733656f0d60405160405180910390a460019050611783565b600090505b92915050565b60006117958383610e57565b15611871576000600a600085815260200190815260200160002060000160008473ffffffffffffffffffffffffffffffffffffffff1673ffffffffffffffffffffffffffffffffffffffff16815260200190815260200160002060006101000a81548160ff02191690831515021790555061180e611653565b73ffffffffffffffffffffffffffffffffffffffff168273ffffffffffffffffffffffffffffffffffffffff16847ff6391f5c32d9c69d2a47ea670b442974b53935d1edc7fd64eb21e047a839171b60405160405180910390a460019050611876565b600090505b92915050565b600073ffffffffffffffffffffffffffffffffffffffff168273ffffffffffffffffffffffffffffffffffffffff16036118ee5760006040517f64a0ae920000000000000000000000000000000000000000000000000000000081526004016118e59190612e16565b60405180910390fd5b60006118fc8383600061166d565b9050600073ffffffffffffffffffffffffffffffffffffffff168173ffffffffffffffffffffffffffffffffffffffff16146119705760006040517f73c6ac6e0000000000000000000000000000000000000000000000000000000081526004016119679190612e16565b60405180910390fd5b505050565b61198f828260405180602001604052806000815250612188565b5050565b600073ffffffffffffffffffffffffffffffffffffffff168273ffffffffffffffffffffffffffffffffffffffff1603611a0457816040517f5b08ba180000000000000000000000000000000000000000000000000000000081526004016119fb9190612e16565b60405180910390fd5b80600560008573ffffffffffffffffffffffffffffffffffffffff1673ffffffffffffffffffffffffffffffffffffffff16815260200190815260200160002060008473ffffffffffffffffffffffffffffffffffffffff1673ffffffffffffffffffffffffffffffffffffffff16815260200190815260200160002060006101000a81548160ff0219169083151502179055508173ffffffffffffffffffffffffffffffffffffffff168373ffffffffffffffffffffffffffffffffffffffff167f17307eab39ab6107e8899845ad3d59bd9653f200f220920489ca2b5937696c3183604051611af59190612ca5565b60405180910390a3505050565b60008373ffffffffffffffffffffffffffffffffffffffff163b1115611cb3578273ffffffffffffffffffffffffffffffffffffffff1663150b7a02611b46611653565b8685856040518563ffffffff1660e01b8152600401611b689493929190613e01565b6020604051808303816000875af1925050508015611ba457506040513d601f19601f82011682018060405250810190611ba19190613e62565b60015b611c28573d8060008114611bd4576040519150601f19603f3d011682016040523d82523d6000602084013e611bd9565b606091505b506000815103611c2057836040517f64a0ae92000000000000000000000000000000000000000000000000000000008152600401611c179190612e16565b60405180910390fd5b805181602001fd5b63150b7a0260e01b7bffffffffffffffffffffffffffffffffffffffffffffffffffffffff1916817bffffffffffffffffffffffffffffffffffffffffffffffffffffffff191614611cb157836040517f64a0ae92000000000000000000000000000000000000000000000000000000008152600401611ca89190612e16565b60405180910390fd5b505b50505050565b606060405180602001604052806000815250905090565b606060006001611cdf846121a4565b01905060008167ffffffffffffffff811115611cfe57611cfd6131e1565b5b6040519080825280601f01601f191660200182016040528015611d305781602001600182028036833780820191505090505b509050600082602001820190505b600115611d93578080600190039150507f3031323334353637383961626364656600000000000000000000000000000000600a86061a8153600a8581611d8757611d86613e8f565b5b04945060008503611d3e575b819350505050919050565b60007f780e9d63000000000000000000000000000000000000000000000000000000007bffffffffffffffffffffffffffffffffffffffffffffffffffffffff1916827bffffffffffffffffffffffffffffffffffffffffffffffffffffffff19161480611e115750611e10826122f7565b5b9050919050565b60006002600083815260200190815260200160002060009054906101000a900473ffffffffffffffffffffffffffffffffffffffff169050919050565b8080611e8e5750600073ffffffffffffffffffffffffffffffffffffffff168273ffffffffffffffffffffffffffffffffffffffff1614155b15611fc2576000611e9e8461158e565b9050600073ffffffffffffffffffffffffffffffffffffffff168373ffffffffffffffffffffffffffffffffffffffff1614158015611f0957508273ffffffffffffffffffffffffffffffffffffffff168173ffffffffffffffffffffffffffffffffffffffff1614155b8015611f1c5750611f1a81846113d2565b155b15611f5e57826040517fa9fbf51f000000000000000000000000000000000000000000000000000000008152600401611f559190612e16565b60405180910390fd5b8115611fc057838573ffffffffffffffffffffffffffffffffffffffff168273ffffffffffffffffffffffffffffffffffffffff167f8c5be1e5ebec7d5bd14f71427d1e84f3dd0314c0f7b2291e5b200ac8c7c3b92560405160405180910390a45b505b836004600085815260200190815260200160002060006101000a81548173ffffffffffffffffffffffffffffffffffffffff021916908373ffffffffffffffffffffffffffffffffffffffff16021790555050505050565b6000806120288585856123d9565b9050600073ffffffffffffffffffffffffffffffffffffffff168173ffffffffffffffffffffffffffffffffffffffff160361206c57612067846125f3565b6120ab565b8473ffffffffffffffffffffffffffffffffffffffff168173ffffffffffffffffffffffffffffffffffffffff16146120aa576120a9818561263c565b5b5b600073ffffffffffffffffffffffffffffffffffffffff168573ffffffffffffffffffffffffffffffffffffffff16036120ed576120e88461279d565b61212c565b8473ffffffffffffffffffffffffffffffffffffffff168173ffffffffffffffffffffffffffffffffffffffff161461212b5761212a858561286e565b5b5b809150509392505050565b6121418282610e57565b6121845780826040517fe2517d3f00000000000000000000000000000000000000000000000000000000815260040161217b929190613ebe565b60405180910390fd5b5050565b612192838361187c565b61219f6000848484611b02565b505050565b600080600090507a184f03e93ff9f4daa797ed6e38ed64bf6a1f0100000000000000008310612202577a184f03e93ff9f4daa797ed6e38ed64bf6a1f01000000000000000083816121f8576121f7613e8f565b5b0492506040810190505b6d04ee2d6d415b85acef8100000000831061223f576d04ee2d6d415b85acef8100000000838161223557612234613e8f565b5b0492506020810190505b662386f26fc10000831061226e57662386f26fc10000838161226457612263613e8f565b5b0492506010810190505b6305f5e1008310612297576305f5e100838161228d5761228c613e8f565b5b0492506008810190505b61271083106122bc5761271083816122b2576122b1613e8f565b5b0492506004810190505b606483106122df57606483816122d5576122d4613e8f565b5b0492506002810190505b600a83106122ee576001810190505b80915050919050565b60007f80ac58cd000000000000000000000000000000000000000000000000000000007bffffffffffffffffffffffffffffffffffffffffffffffffffffffff1916827bffffffffffffffffffffffffffffffffffffffffffffffffffffffff191614806123c257507f5b5e139f000000000000000000000000000000000000000000000000000000007bffffffffffffffffffffffffffffffffffffffffffffffffffffffff1916827bffffffffffffffffffffffffffffffffffffffffffffffffffffffff1916145b806123d257506123d1826128f9565b5b9050919050565b6000806123e584611e18565b9050600073ffffffffffffffffffffffffffffffffffffffff168373ffffffffffffffffffffffffffffffffffffffff161461242757612426818486612963565b5b600073ffffffffffffffffffffffffffffffffffffffff168173ffffffffffffffffffffffffffffffffffffffff16146124b857612469600085600080611e55565b6001600360008373ffffffffffffffffffffffffffffffffffffffff1673ffffffffffffffffffffffffffffffffffffffff168152602001908152602001600020600082825403925050819055505b600073ffffffffffffffffffffffffffffffffffffffff168573ffffffffffffffffffffffffffffffffffffffff161461253b576001600360008773ffffffffffffffffffffffffffffffffffffffff1673ffffffffffffffffffffffffffffffffffffffff168152602001908152602001600020600082825401925050819055505b846002600086815260200190815260200160002060006101000a81548173ffffffffffffffffffffffffffffffffffffffff021916908373ffffffffffffffffffffffffffffffffffffffff160217905550838573ffffffffffffffffffffffffffffffffffffffff168273ffffffffffffffffffffffffffffffffffffffff167fddf252ad1be2c89b69c2b068fc378daa952ba7f163c4a11628f55a4df523b3ef60405160405180910390a4809150509392505050565b6008805490506009600083815260200190815260200160002081905550600881908060018154018082558091505060019003906000526020600020016000909190919091505550565b600061264783610a2d565b905060006007600084815260200190815260200160002054905081811461272c576000600660008673ffffffffffffffffffffffffffffffffffffffff1673ffffffffffffffffffffffffffffffffffffffff168152602001908152602001600020600084815260200190815260200160002054905080600660008773ffffffffffffffffffffffffffffffffffffffff1673ffffffffffffffffffffffffffffffffffffffff168152602001908152602001600020600084815260200190815260200160002081905550816007600083815260200190815260200160002081905550505b6007600084815260200190815260200160002060009055600660008573ffffffffffffffffffffffffffffffffffffffff1673ffffffffffffffffffffffffffffffffffffffff16815260200190815260200160002060008381526020019081526020016000206000905550505050565b600060016008805490506127b19190613ee7565b90506000600960008481526020019081526020016000205490506000600883815481106127e1576127e0613970565b5b90600052602060002001549050806008838154811061280357612802613970565b5b90600052602060002001819055508160096000838152602001908152602001600020819055506009600085815260200190815260200160002060009055600880548061285257612851613f1b565b5b6001900381819060005260206000200160009055905550505050565b6000600161287b84610a2d565b6128859190613ee7565b905081600660008573ffffffffffffffffffffffffffffffffffffffff1673ffffffffffffffffffffffffffffffffffffffff168152602001908152602001600020600083815260200190815260200160002081905550806007600084815260200190815260200160002081905550505050565b60007f01ffc9a7000000000000000000000000000000000000000000000000000000007bffffffffffffffffffffffffffffffffffffffffffffffffffffffff1916827bffffffffffffffffffffffffffffffffffffffffffffffffffffffff1916149050919050565b61296e838383612a27565b612a2257600073ffffffffffffffffffffffffffffffffffffffff168373ffffffffffffffffffffffffffffffffffffffff16036129e357806040517f7e2732890000000000000000000000000000000000000000000000000000000081526004016129da9190612eac565b60405180910390fd5b81816040517f177e802f000000000000000000000000000000000000000000000000000000008152600401612a19929190613947565b60405180910390fd5b505050565b60008073ffffffffffffffffffffffffffffffffffffffff168373ffffffffffffffffffffffffffffffffffffffff1614158015612adf57508273ffffffffffffffffffffffffffffffffffffffff168473ffffffffffffffffffffffffffffffffffffffff161480612aa05750612a9f84846113d2565b5b80612ade57508273ffffffffffffffffffffffffffffffffffffffff16612ac683611616565b73ffffffffffffffffffffffffffffffffffffffff16145b5b90509392505050565b6040518060a0016040528060008152602001606081526020016060815260200160608152602001606081525090565b828054828255906000526020600020908101928215612b5f579160200282015b82811115612b5e578251829081612b4e9190613bc2565b5091602001919060010190612b37565b5b509050612b6c9190612b70565b5090565b5b80821115612b905760008181612b879190612b94565b50600101612b71565b5090565b508054612ba0906138df565b6000825580601f10612bb25750612bd1565b601f016020900490600052602060002090810190612bd09190612bd4565b5b50565b5b80821115612bed576000816000905550600101612bd5565b5090565b6000604051905090565b600080fd5b600080fd5b60007fffffffff0000000000000000000000000000000000000000000000000000000082169050919050565b612c3a81612c05565b8114612c4557600080fd5b50565b600081359050612c5781612c31565b92915050565b600060208284031215612c7357612c72612bfb565b5b6000612c8184828501612c48565b91505092915050565b60008115159050919050565b612c9f81612c8a565b82525050565b6000602082019050612cba6000830184612c96565b92915050565b600081519050919050565b600082825260208201905092915050565b60005b83811015612cfa578082015181840152602081019050612cdf565b60008484015250505050565b6000601f19601f8301169050919050565b6000612d2282612cc0565b612d2c8185612ccb565b9350612d3c818560208601612cdc565b612d4581612d06565b840191505092915050565b60006020820190508181036000830152612d6a8184612d17565b905092915050565b6000819050919050565b612d8581612d72565b8114612d9057600080fd5b50565b600081359050612da281612d7c565b92915050565b600060208284031215612dbe57612dbd612bfb565b5b6000612dcc84828501612d93565b91505092915050565b600073ffffffffffffffffffffffffffffffffffffffff82169050919050565b6000612e0082612dd5565b9050919050565b612e1081612df5565b82525050565b6000602082019050612e2b6000830184612e07565b92915050565b612e3a81612df5565b8114612e4557600080fd5b50565b600081359050612e5781612e31565b92915050565b60008060408385031215612e7457612e73612bfb565b5b6000612e8285828601612e48565b9250506020612e9385828601612d93565b9150509250929050565b612ea681612d72565b82525050565b6000602082019050612ec16000830184612e9d565b92915050565b600080600060608486031215612ee057612edf612bfb565b5b6000612eee86828701612e48565b9350506020612eff86828701612e48565b9250506040612f1086828701612d93565b9150509250925092565b6000819050919050565b612f2d81612f1a565b8114612f3857600080fd5b50565b600081359050612f4a81612f24565b92915050565b600060208284031215612f6657612f65612bfb565b5b6000612f7484828501612f3b565b91505092915050565b612f8681612f1a565b82525050565b6000602082019050612fa16000830184612f7d565b92915050565b60008060408385031215612fbe57612fbd612bfb565b5b6000612fcc85828601612f3b565b9250506020612fdd85828601612e48565b9150509250929050565b600060208284031215612ffd57612ffc612bfb565b5b600061300b84828501612e48565b91505092915050565b61301d81612d72565b82525050565b600082825260208201905092915050565b600061303f82612cc0565b6130498185613023565b9350613059818560208601612cdc565b61306281612d06565b840191505092915050565b600081519050919050565b600082825260208201905092915050565b6000819050602082019050919050565b60006130a58383613034565b905092915050565b6000602082019050919050565b60006130c58261306d565b6130cf8185613078565b9350836020820285016130e185613089565b8060005b8581101561311d57848403895281516130fe8582613099565b9450613109836130ad565b925060208a019950506001810190506130e5565b50829750879550505050505092915050565b600060a0830160008301516131476000860182613014565b506020830151848203602086015261315f8282613034565b915050604083015184820360408601526131798282613034565b915050606083015184820360608601526131938282613034565b915050608083015184820360808601526131ad82826130ba565b9150508091505092915050565b600060208201905081810360008301526131d4818461312f565b905092915050565b600080fd5b7f4e487b7100000000000000000000000000000000000000000000000000000000600052604160045260246000fd5b61321982612d06565b810181811067ffffffffffffffff82111715613238576132376131e1565b5b80604052505050565b600061324b612bf1565b90506132578282613210565b919050565b600080fd5b600080fd5b600080fd5b600067ffffffffffffffff821115613286576132856131e1565b5b61328f82612d06565b9050602081019050919050565b82818337600083830152505050565b60006132be6132b98461326b565b613241565b9050828152602081018484840111156132da576132d9613266565b5b6132e584828561329c565b509392505050565b600082601f83011261330257613301613261565b5b81356133128482602086016132ab565b91505092915050565b600067ffffffffffffffff821115613336576133356131e1565b5b602082029050602081019050919050565b600080fd5b600061335f61335a8461331b565b613241565b9050808382526020820190506020840283018581111561338257613381613347565b5b835b818110156133c957803567ffffffffffffffff8111156133a7576133a6613261565b5b8086016133b489826132ed565b85526020850194505050602081019050613384565b5050509392505050565b600082601f8301126133e8576133e7613261565b5b81356133f884826020860161334c565b91505092915050565b600060a08284031215613417576134166131dc565b5b61342160a0613241565b9050600061343184828501612d93565b600083015250602082013567ffffffffffffffff8111156134555761345461325c565b5b613461848285016132ed565b602083015250604082013567ffffffffffffffff8111156134855761348461325c565b5b613491848285016132ed565b604083015250606082013567ffffffffffffffff8111156134b5576134b461325c565b5b6134c1848285016132ed565b606083015250608082013567ffffffffffffffff8111156134e5576134e461325c565b5b6134f1848285016133d3565b60808301525092915050565b6000806040838503121561351457613513612bfb565b5b600061352285828601612e48565b925050602083013567ffffffffffffffff81111561354357613542612c00565b5b61354f85828601613401565b9150509250929050565b61356281612c8a565b811461356d57600080fd5b50565b60008135905061357f81613559565b92915050565b6000806040838503121561359c5761359b612bfb565b5b60006135aa85828601612e48565b92505060206135bb85828601613570565b9150509250929050565b60006080820190506135da6000830187612e9d565b81810360208301526135ec8186612d17565b905081810360408301526136008185612d17565b905081810360608301526136148184612d17565b905095945050505050565b6000806040838503121561363657613635612bfb565b5b600061364485828601612d93565b925050602083013567ffffffffffffffff81111561366557613664612c00565b5b613671858286016132ed565b9150509250929050565b600067ffffffffffffffff821115613696576136956131e1565b5b61369f82612d06565b9050602081019050919050565b60006136bf6136ba8461367b565b613241565b9050828152602081018484840111156136db576136da613266565b5b6136e684828561329c565b509392505050565b600082601f83011261370357613702613261565b5b81356137138482602086016136ac565b91505092915050565b6000806000806080858703121561373657613735612bfb565b5b600061374487828801612e48565b945050602061375587828801612e48565b935050604061376687828801612d93565b925050606085013567ffffffffffffffff81111561378757613786612c00565b5b613793878288016136ee565b91505092959194509250565b600080604083850312156137b6576137b5612bfb565b5b60006137c485828601612e48565b92505060206137d585828601612e48565b9150509250929050565b600081519050919050565b600082825260208201905092915050565b6000819050602082019050919050565b60006138178383613014565b60208301905092915050565b6000602082019050919050565b600061383b826137df565b61384581856137ea565b9350613850836137fb565b8060005b83811015613881578151613868888261380b565b975061387383613823565b925050600181019050613854565b5085935050505092915050565b600060208201905081810360008301526138a88184613830565b905092915050565b7f4e487b7100000000000000000000000000000000000000000000000000000000600052602260045260246000fd5b600060028204905060018216806138f757607f821691505b60208210810361390a576139096138b0565b5b50919050565b60006060820190506139256000830186612e07565b6139326020830185612e9d565b61393f6040830184612e07565b949350505050565b600060408201905061395c6000830185612e07565b6139696020830184612e9d565b9392505050565b7f4e487b7100000000000000000000000000000000000000000000000000000000600052603260045260246000fd5b7f4e487b7100000000000000000000000000000000000000000000000000000000600052601160045260246000fd5b60006139d982612d72565b91507fffffffffffffffffffffffffffffffffffffffffffffffffffffffffffffffff8203613a0b57613a0a61399f565b5b600182019050919050565b60008190508160005260206000209050919050565b60006020601f8301049050919050565b600082821b905092915050565b600060088302613a787fffffffffffffffffffffffffffffffffffffffffffffffffffffffffffffffff82613a3b565b613a828683613a3b565b95508019841693508086168417925050509392505050565b6000819050919050565b6000613abf613aba613ab584612d72565b613a9a565b612d72565b9050919050565b6000819050919050565b613ad983613aa4565b613aed613ae582613ac6565b848454613a48565b825550505050565b600090565b613b02613af5565b613b0d818484613ad0565b505050565b5b81811015613b3157613b26600082613afa565b600181019050613b13565b5050565b601f821115613b7657613b4781613a16565b613b5084613a2b565b81016020851015613b5f578190505b613b73613b6b85613a2b565b830182613b12565b50505b505050565b600082821c905092915050565b6000613b9960001984600802613b7b565b1980831691505092915050565b6000613bb28383613b88565b9150826002028217905092915050565b613bcb82612cc0565b67ffffffffffffffff811115613be457613be36131e1565b5b613bee82546138df565b613bf9828285613b35565b600060209050601f831160018114613c2c5760008415613c1a578287015190505b613c248582613ba6565b865550613c8c565b601f198416613c3a86613a16565b60005b82811015613c6257848901518255600182019150602085019450602081019050613c3d565b86831015613c7f5784890151613c7b601f891682613b88565b8355505b6001600288020188555050505b505050505050565b7f4d69646e696768744f747465723a204f6e6c7920746865206f776e6572206f6660008201527f2074686520636173652063616e2061646420616e20657870657274207265706f60208201527f72742e0000000000000000000000000000000000000000000000000000000000604082015250565b6000613d16604383612ccb565b9150613d2182613c94565b606082019050919050565b60006020820190508181036000830152613d4581613d09565b9050919050565b600081905092915050565b6000613d6282612cc0565b613d6c8185613d4c565b9350613d7c818560208601612cdc565b80840191505092915050565b6000613d948285613d57565b9150613da08284613d57565b91508190509392505050565b600081519050919050565b600082825260208201905092915050565b6000613dd382613dac565b613ddd8185613db7565b9350613ded818560208601612cdc565b613df681612d06565b840191505092915050565b6000608082019050613e166000830187612e07565b613e236020830186612e07565b613e306040830185612e9d565b8181036060830152613e428184613dc8565b905095945050505050565b600081519050613e5c81612c31565b92915050565b600060208284031215613e7857613e77612bfb565b5b6000613e8684828501613e4d565b91505092915050565b7f4e487b7100000000000000000000000000000000000000000000000000000000600052601260045260246000fd5b6000604082019050613ed36000830185612e07565b613ee06020830184612f7d565b9392505050565b6000613ef282612d72565b9150613efd83612d72565b9250828203905081811115613f1557613f1461399f565b5b92915050565b7f4e487b7100000000000000000000000000000000000000000000000000000000600052603160045260246000fdfea264697066735822122034f2dfee180c0aeb23cc94ab9d0fc03d1b7e96476cb1e2d48023626f66578a7d64736f6c63430008140033",
   "linkReferences": {},
   "deployedLinkReferences": {}
}